:100000000C945C000C946E000C946E000C946E00CA
:100010000C946E000C946E000C946E000C946E00A8
:100020000C946E000C946E000C946E000C946E0098
:100030000C946E000C946E000C946E000C946E0088
:100040000C9403010C946E000C946E000C946E00E2
:100050000C946E000C946E000C946E000C946E0068
:100060000C946E000C946E00000000002400270029
:100070002A0000000000250028002B0004040404CE
:100080000404040402020202020203030303030342
:10009000010204081020408001020408102001021F
:1000A00004081020000000070002010000030406FD
:1000B000000000000000000011241FBECFEFD8E0B8
:1000C000DEBFCDBF21E0A0E0B1E001C01D92A930AC
:1000D000B207E1F70E944D010C94C4010C9400009A
:1000E000E6EBF0E02491E2EAF0E09491EEE8F0E053
:1000F000E491EE2309F43BC0222339F1233091F03F
:1001000038F42130A9F0223001F524B52F7D12C03A
:10011000263091F02730A1F02430B9F420918000EE
:100120002F7D03C0209180002F77209380000DC089
:1001300024B52F7724BD09C02091B0002F7703C0CC
:100140002091B0002F7D2093B000F0E0EE0FFF1F54
:10015000EE58FF4FA591B4912FB7F894EC9181110F
:1001600003C090959E2301C09E2B9C932FBF0895A2
:100170003FB7F8948091050190910601A091070185
:10018000B091080126B5A89B05C02F3F19F0019634
:10019000A11DB11D3FBFBA2FA92F982F8827820F0D
:1001A000911DA11DB11DBC01CD0143E0660F771F5C
:1001B000881F991F4A95D1F70895CF92DF92EF9249
:1001C000FF92CF93DF936B017C010E94B800EB019B
:1001D000C114D104E104F10479F00E94B8006C1B51
:1001E0007D0B683E7340A0F381E0C81AD108E10896
:1001F000F108C851DC4FECCFDF91CF91FF90EF9029
:10020000DF90CF9008951F920F920FB60F92112496
:100210002F933F938F939F93AF93BF93809101014F
:1002200090910201A0910301B0910401309100016D
:1002300026E0230F2D3720F40296A11DB11D05C025
:1002400029E8230F0396A11DB11D2093000180937F
:10025000010190930201A0930301B09304018091E6
:10026000050190910601A0910701B0910801019646
:10027000A11DB11D8093050190930601A093070174
:10028000B0930801BF91AF919F918F913F912F91B2
:100290000F900FBE0F901F901895789484B58260D0
:1002A00084BD84B5816084BD85B5826085BD85B51A
:1002B000816085BD80916E00816080936E00109298
:1002C0008100809181008260809381008091810013
:1002D00081608093810080918000816080938000A4
:1002E0008091B10084608093B1008091B000816002
:1002F0008093B00080917A00846080937A0080912E
:100300007A00826080937A0080917A008160809385
:100310007A0080917A00806880937A001092C10000
:10032000E2EAF0E02491EEE8F0E08491882399F08D
:1003300090E0880F991FFC01E859FF4FA591B491F7
:10034000FC01EE58FF4F859194918FB7F894EC9192
:10035000E22BEC938FBFC0E0D0E081E00E94700000
:1003600061E070E080E090E00E94DD0080E00E94AB
:1003700070006EE170E080E090E00E94DD00209768
:1003800061F30E940000E9CFF8940C94C701F8943F
:02039000FFCF9D
:00000001FF
